{
	"fibonachi.sol": {
		"Fibonacci": {
			"abi": [
				{
					"inputs": [
						{
							"internalType": "uint256",
							"name": "n",
							"type": "uint256"
						}
					],
					"name": "fib",
					"outputs": [
						{
							"internalType": "uint256",
							"name": "",
							"type": "uint256"
						}
					],
					"stateMutability": "pure",
					"type": "function"
				}
			],
			"devdoc": {
				"kind": "dev",
				"methods": {},
				"version": 1
			},
			"evm": {
				"assembly": "    /* \"fibonachi.sol\":68:411  contract Fibonacci {\r... */\n  mstore(0x40, 0x80)\n  callvalue\n  dup1\n  iszero\n  tag_1\n  jumpi\n  0x00\n  dup1\n  revert\ntag_1:\n  pop\n  dataSize(sub_0)\n  dup1\n  dataOffset(sub_0)\n  0x00\n  codecopy\n  0x00\n  return\nstop\n\nsub_0: assembly {\n        /* \"fibonachi.sol\":68:411  contract Fibonacci {\r... */\n      mstore(0x40, 0x80)\n      callvalue\n      dup1\n      iszero\n      tag_1\n      jumpi\n      0x00\n      dup1\n      revert\n    tag_1:\n      pop\n      jumpi(tag_2, lt(calldatasize, 0x04))\n      shr(0xe0, calldataload(0x00))\n      dup1\n      0xc6c2ea17\n      eq\n      tag_3\n      jumpi\n    tag_2:\n      0x00\n      dup1\n      revert\n        /* \"fibonachi.sol\":94:408  function fib(uint256 n) external pure returns (uint256) {\r... */\n    tag_3:\n      tag_4\n      0x04\n      dup1\n      calldatasize\n      sub\n      dup2\n      add\n      swap1\n      tag_5\n      swap2\n      swap1\n      tag_6\n      jump\t// in\n    tag_5:\n      tag_7\n      jump\t// in\n    tag_4:\n      mload(0x40)\n      tag_8\n      swap2\n      swap1\n      tag_9\n      jump\t// in\n    tag_8:\n      mload(0x40)\n      dup1\n      swap2\n      sub\n      swap1\n      return\n    tag_7:\n        /* \"fibonachi.sol\":141:148  uint256 */\n      0x00\n        /* \"fibonachi.sol\":170:171  0 */\n      dup1\n        /* \"fibonachi.sol\":165:166  n */\n      dup3\n        /* \"fibonachi.sol\":165:171  n == 0 */\n      eq\n        /* \"fibonachi.sol\":161:208  if (n == 0) {\r... */\n      iszero\n      tag_11\n      jumpi\n        /* \"fibonachi.sol\":195:196  0 */\n      0x00\n        /* \"fibonachi.sol\":188:196  return 0 */\n      swap1\n      pop\n      jump(tag_10)\n        /* \"fibonachi.sol\":161:208  if (n == 0) {\r... */\n    tag_11:\n        /* \"fibonachi.sol\":218:227  uint256 a */\n      0x00\n        /* \"fibonachi.sol\":230:231  1 */\n      0x01\n        /* \"fibonachi.sol\":218:231  uint256 a = 1 */\n      swap1\n      pop\n        /* \"fibonachi.sol\":242:251  uint256 b */\n      0x00\n        /* \"fibonachi.sol\":254:255  1 */\n      0x01\n        /* \"fibonachi.sol\":242:255  uint256 b = 1 */\n      swap1\n      pop\n        /* \"fibonachi.sol\":271:280  uint256 i */\n      0x00\n        /* \"fibonachi.sol\":283:284  2 */\n      0x02\n        /* \"fibonachi.sol\":271:284  uint256 i = 2 */\n      swap1\n      pop\n        /* \"fibonachi.sol\":266:382  for (uint256 i = 2; i < n; i++) {\r... */\n    tag_12:\n        /* \"fibonachi.sol\":290:291  n */\n      dup5\n        /* \"fibonachi.sol\":286:287  i */\n      dup2\n        /* \"fibonachi.sol\":286:291  i < n */\n      lt\n        /* \"fibonachi.sol\":266:382  for (uint256 i = 2; i < n; i++) {\r... */\n      iszero\n      tag_13\n      jumpi\n        /* \"fibonachi.sol\":313:322  uint256 c */\n      0x00\n        /* \"fibonachi.sol\":329:330  b */\n      dup3\n        /* \"fibonachi.sol\":325:326  a */\n      dup5\n        /* \"fibonachi.sol\":325:330  a + b */\n      tag_15\n      swap2\n      swap1\n      tag_16\n      jump\t// in\n    tag_15:\n        /* \"fibonachi.sol\":313:330  uint256 c = a + b */\n      swap1\n      pop\n        /* \"fibonachi.sol\":349:350  a */\n      dup4\n        /* \"fibonachi.sol\":345:350  b = a */\n      swap3\n      pop\n        /* \"fibonachi.sol\":369:370  c */\n      dup1\n        /* \"fibonachi.sol\":365:370  a = c */\n      swap4\n      pop\n        /* \"fibonachi.sol\":298:382  {\r... */\n      pop\n        /* \"fibonachi.sol\":293:296  i++ */\n      dup1\n      dup1\n      tag_17\n      swap1\n      tag_18\n      jump\t// in\n    tag_17:\n      swap2\n      pop\n      pop\n        /* \"fibonachi.sol\":266:382  for (uint256 i = 2; i < n; i++) {\r... */\n      jump(tag_12)\n    tag_13:\n      pop\n        /* \"fibonachi.sol\":399:400  a */\n      dup2\n        /* \"fibonachi.sol\":392:400  return a */\n      swap3\n      pop\n      pop\n      pop\n        /* \"fibonachi.sol\":94:408  function fib(uint256 n) external pure returns (uint256) {\r... */\n    tag_10:\n      swap2\n      swap1\n      pop\n      jump\t// out\n        /* \"#utility.yul\":7:146   */\n    tag_20:\n        /* \"#utility.yul\":53:58   */\n      0x00\n        /* \"#utility.yul\":91:97   */\n      dup2\n        /* \"#utility.yul\":78:98   */\n      calldataload\n        /* \"#utility.yul\":69:98   */\n      swap1\n      pop\n        /* \"#utility.yul\":107:140   */\n      tag_22\n        /* \"#utility.yul\":134:139   */\n      dup2\n        /* \"#utility.yul\":107:140   */\n      tag_23\n      jump\t// in\n    tag_22:\n        /* \"#utility.yul\":7:146   */\n      swap3\n      swap2\n      pop\n      pop\n      jump\t// out\n        /* \"#utility.yul\":152:481   */\n    tag_6:\n        /* \"#utility.yul\":211:217   */\n      0x00\n        /* \"#utility.yul\":260:262   */\n      0x20\n        /* \"#utility.yul\":248:257   */\n      dup3\n        /* \"#utility.yul\":239:246   */\n      dup5\n        /* \"#utility.yul\":235:258   */\n      sub\n        /* \"#utility.yul\":231:263   */\n      slt\n        /* \"#utility.yul\":228:347   */\n      iszero\n      tag_25\n      jumpi\n        /* \"#utility.yul\":266:345   */\n      tag_26\n      tag_27\n      jump\t// in\n    tag_26:\n        /* \"#utility.yul\":228:347   */\n    tag_25:\n        /* \"#utility.yul\":386:387   */\n      0x00\n        /* \"#utility.yul\":411:464   */\n      tag_28\n        /* \"#utility.yul\":456:463   */\n      dup5\n        /* \"#utility.yul\":447:453   */\n      dup3\n        /* \"#utility.yul\":436:445   */\n      dup6\n        /* \"#utility.yul\":432:454   */\n      add\n        /* \"#utility.yul\":411:464   */\n      tag_20\n      jump\t// in\n    tag_28:\n        /* \"#utility.yul\":401:464   */\n      swap2\n      pop\n        /* \"#utility.yul\":357:474   */\n      pop\n        /* \"#utility.yul\":152:481   */\n      swap3\n      swap2\n      pop\n      pop\n      jump\t// out\n        /* \"#utility.yul\":487:605   */\n    tag_29:\n        /* \"#utility.yul\":574:598   */\n      tag_31\n        /* \"#utility.yul\":592:597   */\n      dup2\n        /* \"#utility.yul\":574:598   */\n      tag_32\n      jump\t// in\n    tag_31:\n        /* \"#utility.yul\":569:572   */\n      dup3\n        /* \"#utility.yul\":562:599   */\n      mstore\n        /* \"#utility.yul\":487:605   */\n      pop\n      pop\n      jump\t// out\n        /* \"#utility.yul\":611:833   */\n    tag_9:\n        /* \"#utility.yul\":704:708   */\n      0x00\n        /* \"#utility.yul\":742:744   */\n      0x20\n        /* \"#utility.yul\":731:740   */\n      dup3\n        /* \"#utility.yul\":727:745   */\n      add\n        /* \"#utility.yul\":719:745   */\n      swap1\n      pop\n        /* \"#utility.yul\":755:826   */\n      tag_34\n        /* \"#utility.yul\":823:824   */\n      0x00\n        /* \"#utility.yul\":812:821   */\n      dup4\n        /* \"#utility.yul\":808:825   */\n      add\n        /* \"#utility.yul\":799:805   */\n      dup5\n        /* \"#utility.yul\":755:826   */\n      tag_29\n      jump\t// in\n    tag_34:\n        /* \"#utility.yul\":611:833   */\n      swap3\n      swap2\n      pop\n      pop\n      jump\t// out\n        /* \"#utility.yul\":920:1225   */\n    tag_16:\n        /* \"#utility.yul\":960:963   */\n      0x00\n        /* \"#utility.yul\":979:999   */\n      tag_38\n        /* \"#utility.yul\":997:998   */\n      dup3\n        /* \"#utility.yul\":979:999   */\n      tag_32\n      jump\t// in\n    tag_38:\n        /* \"#utility.yul\":974:999   */\n      swap2\n      pop\n        /* \"#utility.yul\":1013:1033   */\n      tag_39\n        /* \"#utility.yul\":1031:1032   */\n      dup4\n        /* \"#utility.yul\":1013:1033   */\n      tag_32\n      jump\t// in\n    tag_39:\n        /* \"#utility.yul\":1008:1033   */\n      swap3\n      pop\n        /* \"#utility.yul\":1167:1168   */\n      dup3\n        /* \"#utility.yul\":1099:1165   */\n      0xffffffffffffffffffffffffffffffffffffffffffffffffffffffffffffffff\n        /* \"#utility.yul\":1095:1169   */\n      sub\n        /* \"#utility.yul\":1092:1093   */\n      dup3\n        /* \"#utility.yul\":1089:1170   */\n      gt\n        /* \"#utility.yul\":1086:1193   */\n      iszero\n      tag_40\n      jumpi\n        /* \"#utility.yul\":1173:1191   */\n      tag_41\n      tag_42\n      jump\t// in\n    tag_41:\n        /* \"#utility.yul\":1086:1193   */\n    tag_40:\n        /* \"#utility.yul\":1217:1218   */\n      dup3\n        /* \"#utility.yul\":1214:1215   */\n      dup3\n        /* \"#utility.yul\":1210:1219   */\n      add\n        /* \"#utility.yul\":1203:1219   */\n      swap1\n      pop\n        /* \"#utility.yul\":920:1225   */\n      swap3\n      swap2\n      pop\n      pop\n      jump\t// out\n        /* \"#utility.yul\":1231:1308   */\n    tag_32:\n        /* \"#utility.yul\":1268:1275   */\n      0x00\n        /* \"#utility.yul\":1297:1302   */\n      dup2\n        /* \"#utility.yul\":1286:1302   */\n      swap1\n      pop\n        /* \"#utility.yul\":1231:1308   */\n      swap2\n      swap1\n      pop\n      jump\t// out\n        /* \"#utility.yul\":1314:1547   */\n    tag_18:\n        /* \"#utility.yul\":1353:1356   */\n      0x00\n        /* \"#utility.yul\":1376:1400   */\n      tag_45\n        /* \"#utility.yul\":1394:1399   */\n      dup3\n        /* \"#utility.yul\":1376:1400   */\n      tag_32\n      jump\t// in\n    tag_45:\n        /* \"#utility.yul\":1367:1400   */\n      swap2\n      pop\n        /* \"#utility.yul\":1422:1488   */\n      0xffffffffffffffffffffffffffffffffffffffffffffffffffffffffffffffff\n        /* \"#utility.yul\":1415:1420   */\n      dup3\n        /* \"#utility.yul\":1412:1489   */\n      eq\n        /* \"#utility.yul\":1409:1512   */\n      iszero\n      tag_46\n      jumpi\n        /* \"#utility.yul\":1492:1510   */\n      tag_47\n      tag_42\n      jump\t// in\n    tag_47:\n        /* \"#utility.yul\":1409:1512   */\n    tag_46:\n        /* \"#utility.yul\":1539:1540   */\n      0x01\n        /* \"#utility.yul\":1532:1537   */\n      dup3\n        /* \"#utility.yul\":1528:1541   */\n      add\n        /* \"#utility.yul\":1521:1541   */\n      swap1\n      pop\n        /* \"#utility.yul\":1314:1547   */\n      swap2\n      swap1\n      pop\n      jump\t// out\n        /* \"#utility.yul\":1553:1733   */\n    tag_42:\n        /* \"#utility.yul\":1601:1678   */\n      0x4e487b7100000000000000000000000000000000000000000000000000000000\n        /* \"#utility.yul\":1598:1599   */\n      0x00\n        /* \"#utility.yul\":1591:1679   */\n      mstore\n        /* \"#utility.yul\":1698:1702   */\n      0x11\n        /* \"#utility.yul\":1695:1696   */\n      0x04\n        /* \"#utility.yul\":1688:1703   */\n      mstore\n        /* \"#utility.yul\":1722:1726   */\n      0x24\n        /* \"#utility.yul\":1719:1720   */\n      0x00\n        /* \"#utility.yul\":1712:1727   */\n      revert\n        /* \"#utility.yul\":1862:1979   */\n    tag_27:\n        /* \"#utility.yul\":1971:1972   */\n      0x00\n        /* \"#utility.yul\":1968:1969   */\n      dup1\n        /* \"#utility.yul\":1961:1973   */\n      revert\n        /* \"#utility.yul\":1985:2107   */\n    tag_23:\n        /* \"#utility.yul\":2058:2082   */\n      tag_53\n        /* \"#utility.yul\":2076:2081   */\n      dup2\n        /* \"#utility.yul\":2058:2082   */\n      tag_32\n      jump\t// in\n    tag_53:\n        /* \"#utility.yul\":2051:2056   */\n      dup2\n        /* \"#utility.yul\":2048:2083   */\n      eq\n        /* \"#utility.yul\":2038:2101   */\n      tag_54\n      jumpi\n        /* \"#utility.yul\":2097:2098   */\n      0x00\n        /* \"#utility.yul\":2094:2095   */\n      dup1\n        /* \"#utility.yul\":2087:2099   */\n      revert\n        /* \"#utility.yul\":2038:2101   */\n    tag_54:\n        /* \"#utility.yul\":1985:2107   */\n      pop\n      jump\t// out\n\n    auxdata: 0xa2646970667358221220faf36bc287d5b5faa1b5ac0cf04dc397b260f0f0a643512c9075a695db31285064736f6c63430008070033\n}\n",
				"bytecode": {
					"linkReferences": {},
					"object": "608060405234801561001057600080fd5b5061025a806100206000396000f3fe608060405234801561001057600080fd5b506004361061002b5760003560e01c8063c6c2ea1714610030575b600080fd5b61004a600480360381019061004591906100d9565b610060565b6040516100579190610115565b60405180910390f35b60008082141561007357600090506100bf565b6000600190506000600190506000600290505b848110156100b8576000828461009c9190610130565b90508392508093505080806100b090610190565b915050610086565b5081925050505b919050565b6000813590506100d38161020d565b92915050565b6000602082840312156100ef576100ee610208565b5b60006100fd848285016100c4565b91505092915050565b61010f81610186565b82525050565b600060208201905061012a6000830184610106565b92915050565b600061013b82610186565b915061014683610186565b9250827fffffffffffffffffffffffffffffffffffffffffffffffffffffffffffffffff0382111561017b5761017a6101d9565b5b828201905092915050565b6000819050919050565b600061019b82610186565b91507fffffffffffffffffffffffffffffffffffffffffffffffffffffffffffffffff8214156101ce576101cd6101d9565b5b600182019050919050565b7f4e487b7100000000000000000000000000000000000000000000000000000000600052601160045260246000fd5b600080fd5b61021681610186565b811461022157600080fd5b5056fea2646970667358221220faf36bc287d5b5faa1b5ac0cf04dc397b260f0f0a643512c9075a695db31285064736f6c63430008070033",
					"opcodes": "PUSH1 0x80 PUSH1 0x40 MSTORE CALLVALUE DUP1 ISZERO PUSH2 0x10 JUMPI PUSH1 0x0 DUP1 REVERT JUMPDEST POP PUSH2 0x25A DUP1 PUSH2 0x20 PUSH1 0x0 CODECOPY PUSH1 0x0 RETURN INVALID PUSH1 0x80 PUSH1 0x40 MSTORE CALLVALUE DUP1 ISZERO PUSH2 0x10 JUMPI PUSH1 0x0 DUP1 REVERT JUMPDEST POP PUSH1 0x4 CALLDATASIZE LT PUSH2 0x2B JUMPI PUSH1 0x0 CALLDATALOAD PUSH1 0xE0 SHR DUP1 PUSH4 0xC6C2EA17 EQ PUSH2 0x30 JUMPI JUMPDEST PUSH1 0x0 DUP1 REVERT JUMPDEST PUSH2 0x4A PUSH1 0x4 DUP1 CALLDATASIZE SUB DUP2 ADD SWAP1 PUSH2 0x45 SWAP2 SWAP1 PUSH2 0xD9 JUMP JUMPDEST PUSH2 0x60 JUMP JUMPDEST PUSH1 0x40 MLOAD PUSH2 0x57 SWAP2 SWAP1 PUSH2 0x115 JUMP JUMPDEST PUSH1 0x40 MLOAD DUP1 SWAP2 SUB SWAP1 RETURN JUMPDEST PUSH1 0x0 DUP1 DUP3 EQ ISZERO PUSH2 0x73 JUMPI PUSH1 0x0 SWAP1 POP PUSH2 0xBF JUMP JUMPDEST PUSH1 0x0 PUSH1 0x1 SWAP1 POP PUSH1 0x0 PUSH1 0x1 SWAP1 POP PUSH1 0x0 PUSH1 0x2 SWAP1 POP JUMPDEST DUP5 DUP2 LT ISZERO PUSH2 0xB8 JUMPI PUSH1 0x0 DUP3 DUP5 PUSH2 0x9C SWAP2 SWAP1 PUSH2 0x130 JUMP JUMPDEST SWAP1 POP DUP4 SWAP3 POP DUP1 SWAP4 POP POP DUP1 DUP1 PUSH2 0xB0 SWAP1 PUSH2 0x190 JUMP JUMPDEST SWAP2 POP POP PUSH2 0x86 JUMP JUMPDEST POP DUP2 SWAP3 POP POP POP JUMPDEST SWAP2 SWAP1 POP JUMP JUMPDEST PUSH1 0x0 DUP2 CALLDATALOAD SWAP1 POP PUSH2 0xD3 DUP2 PUSH2 0x20D JUMP JUMPDEST SWAP3 SWAP2 POP POP JUMP JUMPDEST PUSH1 0x0 PUSH1 0x20 DUP3 DUP5 SUB SLT ISZERO PUSH2 0xEF JUMPI PUSH2 0xEE PUSH2 0x208 JUMP JUMPDEST JUMPDEST PUSH1 0x0 PUSH2 0xFD DUP5 DUP3 DUP6 ADD PUSH2 0xC4 JUMP JUMPDEST SWAP2 POP POP SWAP3 SWAP2 POP POP JUMP JUMPDEST PUSH2 0x10F DUP2 PUSH2 0x186 JUMP JUMPDEST DUP3 MSTORE POP POP JUMP JUMPDEST PUSH1 0x0 PUSH1 0x20 DUP3 ADD SWAP1 POP PUSH2 0x12A PUSH1 0x0 DUP4 ADD DUP5 PUSH2 0x106 JUMP JUMPDEST SWAP3 SWAP2 POP POP JUMP JUMPDEST PUSH1 0x0 PUSH2 0x13B DUP3 PUSH2 0x186 JUMP JUMPDEST SWAP2 POP PUSH2 0x146 DUP4 PUSH2 0x186 JUMP JUMPDEST SWAP3 POP DUP3 PUSH32 0xFFFFFFFFFFFFFFFFFFFFFFFFFFFFFFFFFFFFFFFFFFFFFFFFFFFFFFFFFFFFFFFF SUB DUP3 GT ISZERO PUSH2 0x17B JUMPI PUSH2 0x17A PUSH2 0x1D9 JUMP JUMPDEST JUMPDEST DUP3 DUP3 ADD SWAP1 POP SWAP3 SWAP2 POP POP JUMP JUMPDEST PUSH1 0x0 DUP2 SWAP1 POP SWAP2 SWAP1 POP JUMP JUMPDEST PUSH1 0x0 PUSH2 0x19B DUP3 PUSH2 0x186 JUMP JUMPDEST SWAP2 POP PUSH32 0xFFFFFFFFFFFFFFFFFFFFFFFFFFFFFFFFFFFFFFFFFFFFFFFFFFFFFFFFFFFFFFFF DUP3 EQ ISZERO PUSH2 0x1CE JUMPI PUSH2 0x1CD PUSH2 0x1D9 JUMP JUMPDEST JUMPDEST PUSH1 0x1 DUP3 ADD SWAP1 POP SWAP2 SWAP1 POP JUMP JUMPDEST PUSH32 0x4E487B7100000000000000000000000000000000000000000000000000000000 PUSH1 0x0 MSTORE PUSH1 0x11 PUSH1 0x4 MSTORE PUSH1 0x24 PUSH1 0x0 REVERT JUMPDEST PUSH1 0x0 DUP1 REVERT JUMPDEST PUSH2 0x216 DUP2 PUSH2 0x186 JUMP JUMPDEST DUP2 EQ PUSH2 0x221 JUMPI PUSH1 0x0 DUP1 REVERT JUMPDEST POP JUMP INVALID LOG2 PUSH5 0x6970667358 0x22 SLT KECCAK256 STATICCALL RETURN PUSH12 0xC287D5B5FAA1B5AC0CF04DC3 SWAP8 0xB2 PUSH1 0xF0 CREATE 0xA6 NUMBER MLOAD 0x2C SWAP1 PUSH22 0xA695DB31285064736F6C634300080700330000000000 "
				},
				"gasEstimates": {
					"creation": {
						"codeDepositCost": "120400",
						"executionCost": "165",
						"totalCost": "120565"
					},
					"external": {
						"fib(uint256)": "infinite"
					}
				},
				"methodIdentifiers": {
					"fib(uint256)": "c6c2ea17"
				}
			},
			"storageLayout": {
				"storage": [],
				"types": null
			},
			"userdoc": {
				"kind": "user",
				"methods": {},
				"version": 1
			}
		}
	}
}